:100000001AC03FC03EC03DC03CC03BC03AC039C032
:1000100038C091C236C035C034C033C032C031C0E0
:1000200030C02FC02EC03AC32CC02BC0B9C2B2C240
:10003000BDC227C0F40311241FBECFEFCDBFDFE345
:10004000DEBF8091400080934000811105C098ED93
:1000500021E094BF209341008CBB2FE3A0E0BFE3DD
:1000600001C01D92A337B207E1F710E0CBE1D0E069
:1000700003C02197FE0101D6CA31D107D1F7DFD3E2
:1000800002C6BECF0F931F93CF93DF93EC018B017A
:10009000E091463FF091473F838180FD06C080E1BB
:1000A000DF91CF911F910F9108959881A0E2BEE456
:1000B00030E04E7F5581752F737089F3119789F465
:1000C00085E0723021F084E0713009F481E13881FB
:1000D000391B3883211102C0882311F393E09483E4
:1000E000DFCF53FD20C0733029F3311105C04783A2
:1000F000A0E2BEE431E0DECF56FFDCCF54FF08C003
:1001000082E031FFE4CF83E09111E1CF80E0DFCFE7
:100110009923E1F3D8018D918D0180879150326050
:10012000A0E2BEE4C7CF82E1BBCF0F931F93AB0128
:10013000BC018FB7F8940091053F1091063F2091C4
:10014000073F3091083F8FBFEFB7F8948091053F8C
:100150009091063FA091073FB091083FEFBF801BF1
:10016000910BA20BB30B84179507A607B70760F393
:100170001F910F910895FC0182899389891B990B26
:100180000895AF92BF92CF92DF92EF92FF920F93BA
:100190001F93CF93DF936C017B018B01040F151F1D
:1001A000EB015E01AE18BF08C017D10759F0699185
:1001B000D601ED91FC910190F081E02DC6010995E9
:1001C000892B79F7C501DF91CF911F910F91FF9096
:1001D000EF90DF90CF90BF90AF900895FC015785CE
:1001E0004089252F30E0842F90E0821B930B541719
:1001F00010F00F96089501970895FC019585868566
:10020000981761F0A685AE0FBF2FB11D51968C9146
:1002100096859F5F9F70968790E008958FEF9FEF80
:100220000895FC0195858685981731F08685E80F3D
:10023000F11D818990E008958FEF9FEF0895FC01F3
:1002400095852685892F90E04096821B91098F70B5
:1002500099270895DC010FB607FE04C080911101B3
:100260008823B1F01896ED91FC911997848185FF50
:100270000FC01F969C911F9750968C91981304C0A5
:1002800085818F7D85830895EBE0FFE3E8949BC132
:1002900008950F931F93CF93DF93EC018C858160BA
:1002A0008C879F85888998130BC0E885F9858481A0
:1002B00085FF06C08C8581FD0DC080E4848312C05B
:1002C000062F1F851F5F1F708889811315C0CE01FF
:1002D000C1DFFACF85818F77806490E49483E885CD
:1002E000F9858583E885F985628381E090E0DF9177
:1002F000CF911F910F910895EF85EC0FFD2FF11D08
:1003000001A31F878C85E885F98581FF09C0858158
:100310008F77806690E49483E885F9858583E5CFBF
:1003200085818062FBCFCF93DF93EC018C8580FFCA
:100330000BC0E885F985858185FD03C0848186FD34
:1003400003C0CE0187DFF5CFDF91CF910895DC01A7
:100350001896ED91FC9184818860848308959C01B6
:100360002B5E3F4FDC015396EC91539752968C9144
:10037000E81730F4E20FF32FF11D808190E008952B
:100380008FEF9FEF0895FC01DC01559693898289D8
:10039000981740F4A90FB11D2C919F5F938B822F6A
:1003A00090E008958FEF9FEF0895FC01A289A0329D
:1003B00058F4A80FB92FB11D55966C9382898F5FA1
:1003C000828B81E090E0089590E080E00895682FAE
:1003D0008EE39FE3EACFBF92CF92DF92EF92FF923C
:1003E0000F931F93CF93DF937C016A01B62EEB012D
:1003F0000C2F0B1910E00C151D0528F46991C7018D
:10040000D4DF892BA9F7C801DF91CF911F910F91FC
:10041000FF90EF90DF90CF90BF90089590E080E044
:1004200008958F929F92AF92BF920F931F93CF9395
:10043000DF93CDB7DEB7A197CDBFDEBF19A24230A3
:1004400008F44AE08E010F5D1F4F842E912CB12CD1
:10045000A12CA5019401C7D3E62FB901CA01EA3046
:1004600024F5E05DD801EE938D01232B242B252B61
:1004700081F790E080E0109761F0FD01019000208D
:10048000E9F73197AF014A1B5B0BBD018BE09FE39E
:1004900078DEA196CDBFDEBFDF91CF911F910F9186
:1004A000BF90AF909F908F900895E95CDBCFCF9283
:1004B000DF92EF92FF92CF93DF936B017C016DE2AD
:1004C0008BE09FE3E6DEEC0166277727CB016C1912
:1004D0007D098E099F094AE0A4DF8C0F9D1FDF91E3
:1004E000CF91FF90EF90DF90CF9008958630F0F499
:1004F00090E0FC01E256F34720812F3FB9F0FC0168
:10050000E856F347E08130E2E39FF0011124FC5FFD
:10051000613069F421838E569347DC018C91E80F9A
:10052000F11D8089613029F08860808B08952283D5
:10053000F2CF877FFACF8F9382E080930B0A8FB739
:100540008F93EF93FF93E1E0FFE39F9368948FEF26
:100550000DC0E89484819581805D9C4F8483958350
:10056000885E934080F0848395838FEF9081981B01
:10057000919390819F4F919390819F4F9193908100
:100580009F4F919336F39F91FF91EF918F918FBF82
:100590008F911895EF93FF93F898EBE0FFE30BC072
:1005A000EF93FF93F898EBE0FFE332C0EF93FF93F4
:1005B000EBE0FFE35AC02F932FB72F938F939F93B6
:1005C000AF93BF936894CF93DF9320E0C085D8E0CA
:1005D0009089DF01A90FB21F91968C9120E42C83A2
:1005E0008A839F5F9F708D812785291302C08F7D2D
:1005F0008D83908BDF91CF910EF04ACEBF91AF915A
:100600009F918F912F912FBF2F91FF91EF9118956F
:100610002F932FB72F933F938F939F93CF93DF9376
:10062000C085D8E0898198818674880F3485382BFD
:1006300082FD0DC0C58581E08C0F8F70268528173F
:1006400091F0CE0FDF2F20E0D21F998B8587348762
:10065000DF91CF919F918F913F912F912FBF2F913C
:10066000FF91EF9118953064F2CF8F938FB78F93EE
:100670009F93CF93DF93C085D8E09D8188818C8143
:1006800087FDFCCF9F7B90689D83DF91CF919F91E9
:100690008F918FBF8F91FF91EF9118951F920F92BD
:1006A0000FB60F9211241F932F933F934F935F9395
:1006B0006F937F938F939F93AF93BF93CF93DF936A
:1006C000EF93FF93C0913C3FD0913D3F2097B9F10C
:1006D000A885B9851B961C911B9716FF53C08B8567
:1006E00083FF09C0877F8B87EF85F889309719F0E2
:1006F0008A8990E0099510FF3BC08A8981110BC05F
:100700008091003F811107C0809150008093003F8D
:100710008170809350001A8A1B8AE885F985858547
:10072000898B11FF20C0ED85FE85309709F0099572
:100730008A8981111BC086E0E885F9858287FF914F
:10074000EF91DF91CF91BF91AF919F918F917F9169
:100750006F915F914F913F912F911F910F900FBE1D
:100760000F901F9018958B8588608B8783E0E4CF6E
:100770008091003F809350001092003F1A8A1B8A9C
:1007800082E0DACF17FF2EC09E012B5E3F4F11FF94
:100790001AC08A85182321F088E08A871A8AF0CF48
:1007A0008C898F5F8C8B88E18A87EB898A89E8172F
:1007B000A8F7E20FF32FF11D80811D968C938B8992
:1007C0008F5F8B8BD3CF1D968C91EA89E03250F4EA
:1007D000E20FF32FF11D80838A898F5F8A8B80322D
:1007E00029F6A9CF80E0A8CFEBE0FFE312821382C5
:1007F00088EE93E0A0E0B0E084839583A683B7837E
:1008000028EA3CE82083318320E038E020873187E4
:1008100012861386EEE3FFE31282138284839583AC
:10082000A683B7838AEB9CE880839183E0933C3F67
:10083000F0933D3F80E198E0808791870895CF93C2
:10084000DF93CDB7DEB72597CDBFDEBF88ED90E053
:1008500084BF90936100E0E0F6E083E582838DE061
:10086000858380E2838381E080838093020280938A
:10087000030A8EEF8093260A8093270A8BE08093E9
:10088000000A82E080930A0A78948BE09FE3E2DC1E
:100890008091173F80FF11C08BE09FE344DDE09122
:1008A000133FF091143F1682158280EC848380916F
:1008B000193F8093183F1092173F1FB7F894E091AB
:1008C000133FF091143F168283E0878386EB92E01A
:1008D00080879187148680E8858380EC8683909159
:1008E000163F2091153F2B8380910102992309F433
:1008F000ABC0816080930102EB81E90FFF27FF1FEE
:10090000EE0FFF1FEE0FFF1FE657F347EC83FD834B
:1009100061E08081EBDD62E0EC81FD818181E6DDDB
:100920001FBF8091493F81FD24C082FD22C096E017
:100930009093060482608093493FE091463FF09196
:10094000473F81E0838385839091493F91FF11C0A8
:10095000E091463FF091473F9681993551F02381D0
:10096000138299E5968390819D7F9083238320FD58
:10097000858361E084E0BADD8091493F81FF07C053
:1009800084EC80934F3F1092503F1092513F81E290
:1009900090E01DDD81EB90E01ADD21E040914F3FBA
:1009A00063E57FE380E59FE36DDB68E873E180E06A
:1009B00090E0BBDB84ECF82E97E0E92E88248A9443
:1009C000982CA12CB12C8091493F81FF06C0F09258
:1009D0004F3F1092503F1092513F8CEE90E0F7DC69
:1009E00085E090E0F4DC21E040914F3F63E57FE358
:1009F00080E59FE347DB87E893E10197F1F700C0CB
:100A00000000F0924F3F99E09093503F1092513F79
:100A1000E091463FF091473F80E29EE440E029E0CC
:100A2000A3E5BFE33581532F5370A1F0019791F0F7
:100A300033FD15C05330B1F3411108C035EC378395
:100A400080E29EE441E0EECF8E7F54CF36FFAFC010
:100A500083E084838091503F821B8093503F80913C
:100A6000503F9091513F891B990B09970CF499C005
:100A70008EE39FE388DC282E8EE39FE384DC8C8367
:100A80009D838EE39FE37FDC8EE39FE37CDC382E47
:100A90008EE39FE378DC8C018EE39FE374DC8EE3CE
:100AA0009FE371DCD82E8EE39FE36DDC5D2C412C3F
:100AB0006201C82AD92A8EE39FE365DC612CEC81B0
:100AC000FD81E629F229BF0190E080E04AE0A9DC3F
:100AD0006CE28BE09FE3DDDB3A82198229813A8167
:100AE000202B312BA6EDB6E0BCD0A50194019DD002
:100AF000225C3140B901032E000C880B990B37FFA3
:100B000063C0D5DC6CE28BE09FE3C3DB9601A8EE0B
:100B1000B3E0A7D0A501940188D0CA01B9014AE089
:100B200080DC6CE28BE09FE3B4DB8091000669EF30
:100B300072E8882369F0E0920606F1E0F093080677
:100B400080910B0680FFFCCF60911006709111061A
:100B5000072E000C880B990B97FF39C0A8DC42E0E8
:100B600050E068EC7CE88BE09FE30BDB80910804AD
:100B700083FD30C028E02093050481E090910004BB
:100B800093FD0AC09FB7F894811129C08091130486
:100B9000877F809313049FBF8091010A8F7E80938B
:100BA000010A68E873E180E090E0BFDA0CCF37FF1C
:100BB00039CF80858D93215029F092E0948380E293
:100BC0009EE430CFE48246CF4AE02BDC9BCF4AE064
:100BD00028DCC5CF38E03093060480E0CFCF809189
:100BE00013048860D6CFA1E21A2EAA1BBB1BFD01FD
:100BF0000DC0AA1FBB1FEE1FFF1FA217B307E407FC
:100C0000F50720F0A21BB30BE40BF50B661F771F53
:100C1000881F991F1A9469F7609570958095909533
:100C20009B01AC01BD01CF010895052E97FB16F481
:100C300000940FD057FD05D0D6DF07FC02D046F454
:100C400008C050954095309521953F4F4F4F5F4FCD
:100C5000089590958095709561957F4F8F4F9F4F28
:100C60000895A29FB001B39FC001A39F01D0B29F7E
:100C7000700D811D1124911D0895EE0FFF1F059029
:0A0C8000F491E02D0994F894FFCFE1
:100C8A00000104050203FFFF06070102030000003A
:100C9A000000000040800204080100000000490131
:100CAA00C100EE0093011F01FD00110100000000C8
:100CBA00D501EB010E02A701BB00C301AF010D0A6A
:010CCA000029
:00000001FF
